:020000040800F2
:1000000018090020E14E0008E54D0008E74D000802
:10001000E94D0008EB4D0008ED4D00080000000020
:10002000000000000000000000000000EF4D00088C
:10003000F14D000800000000F34D0008F54D0008E8
:10004000054F0008094F00080D4F0008114F000828
:10005000154F0008194F00081D4F0008214F0008D8
:10006000254F0008294F00082D4F0008314F000888
:10007000354F0008394F00083D4F0008F94D000882
:10008000414F0008454F0008494F0008FF4D000848
:10009000014E0008094E00084D4F0008514F00085E
:1000A000554F0008594F00085D4F0008614F000888
:1000B000654F0008694F00086D4F0008714F000838
:1000C000754F0008794F00087D4F0008814F0008E8
:1000D000854F00080B4E0008894F00088D4F00081F
:1000E000914F0008954F0008994F000881B000F526
:1000F000E0700268914203D343681A44914202D3EC
:1001000080680028F5D101B07047DFF868170868EB
:1001100090B94FF4805048604FF480324FF0FF3078
:100120008A60C86008610420DFF84C27DFF84C378C
:100130004861C2F8BC010B600120704701F108035F
:1001400013F0070F0EBF0023C3F1080303F00703EA
:100150001944D21A8161C26042F001034B60091D4B
:1001600028238B50DFF80C170A69C26170472DE90C
:10017000FC4B074601F1080010F0070F0FBF89463E
:10018000C0F1080000F0070001EB000902F10801CE
:1001900011F0070F06D002F10800C0F1080000F0CE
:1001A000070002441546A5EB090009EB0306A0EB86
:1001B000030B43F00303C9F80430AE4228BF01F03B
:1001C000FFF92879C10758BF01F0FAF9BBF1100F08
:1001D00038BF01F0F5F9B869854207D1F86858448D
:1001E000F860BE6140F00100706050E178698542BE
:1001F0000AD1B8688344C7F808B07E614BF00100AB
:10020000706046F80BB042E1686800F00301012914
:1002100040F0AB80C008C0000190C0081F2839D84A
:10022000AC68D5F80C800090454508BF01F0C8F9CE
:10023000A54208BF01F0C4F968680099C008C00071
:10024000B0EBC10F18BF01F0BBF9009907F128000E
:1002500000EBC100844206D03A699442C0F080802D
:10026000E168A9427CD1A04506D1009839680122F5
:1002700082409143396075E0804506D038698045F9
:100280006ED3D8F80800A8426AD1C4F80C80C8F828
:10029000084067E0EC68D5F81880AC420CD0A8683C
:1002A0003969884222D3C168A94204BFA168A94222
:1002B0001CD1C460A0601BE005F11402146834B9BD
:1002C00005F1100214689CB101E01A46146804F1AB
:1002D00014031968002902BF04F1100318680028EC
:1002E000F3D139698A4228BF106001D201F068F960
:1002F000B8F1000F36D0E96907F5987000EB81007E
:100300000268954208D10460A4B9E86979680122BD
:1003100082409143796025E03869804508D3D8F858
:100320001000A84214BFC8F81440C8F8104001E0FB
:1003300001F046F9B4B139698C4211D3C4F8188080
:10034000286928B1884226BF2061846101F038F90C
:10035000686938B13969884202D36061846101E01B
:1003600001F02EF901982D18834468684008400078
:1003700068604BF0010171604FEADB0446F80BB096
:100380001F2C23D807F1280000EBC4084546BBF119
:10039000100F38BF01F014F9386820FA04F1C907CA
:1003A00005D4012101FA04F404433C6007E0D8F8C5
:1003B0000800396988422CBF054601F001F9C8F8E8
:1003C0000860EE60B560C6F80C8060E05FEA1B2054
:1003D00008BF002123D0B0F5803F28BF1F211ED2C7
:1003E000A0F58072120C02F008029040A0F5805136
:1003F000090C01F004018840A0F580431B0CC2F1F8
:100400000E0203F00203521AD21A984002EBD032C5
:10041000D01D2BFA00F101F0010101EB420107F5BB
:10042000987202EB8100F1610022726132617A6898
:1004300022FA01F3DB0707D4012303FA01F1114388
:1004400079600660B0611DE002681F291DBF490880
:10045000C1F119010BFA01F1594600E0024650685A
:10046000C008C000584516D002F11003CC0F03EBB2
:100470008403490018680028F0D13869834204D306
:100480001E60B261F660B66001E001F099F809F112
:100490000800BDE8F68B396990688A4228BF884217
:1004A000F3D3C6609660B060F2600020B061EEE702
:1004B0002DE9FE4F04468B46A5692E469046994687
:1004C0003146FFF713FEA8F128020168406801EBEE
:1004D000000AAAF1270111F007000EBF0021C1F1A7
:1004E000080101F007010AEB0100A0F12F0706F156
:1004F0001000874238BF374607F11800019059466F
:10050000002000902046FFF719FE07F1080010F0C8
:10051000070F18BF01F054F81B20786007F108019D
:1005200004F5E07090E80C5081E80C50C0F800B081
:10053000C0F80480C0F80C9081600198009900E038
:10054000001D07224260491C00F108025245F7D302
:100550000129D8BF01F034F8B74200F09580BF1BE5
:10056000301D311DC05940084000C85147F00101FD
:1005700071604FEAD70BF751BBF11F0F21D804EB85
:10058000CB0000F12805A846102F38BF01F018F85D
:10059000206820FA0BF1C90705D4012101FA0BF1FB
:1005A0000843206006E0A868216988422CBF804685
:1005B00001F006F8AE60C8F80C60C6F80880F56077
:1005C0006FE0380A08BF002123D0B0F5803F28BF74
:1005D0001F211ED2A0F58072120C02F0080290407A
:1005E000A0F58051090C01F004018840A0F580437A
:1005F0001B0CC2F10E0203F00203521AD21A9840E9
:1006000002EBD032D01D27FA00F101F0010101EB1D
:10061000420104EB8102002302F59870F1617361DD
:100620003361626822FA01F3DB0707D4012303FA7E
:1006300001F1114361600660B0611DE002681F298D
:100640001DBF4908C1F1190107FA01F1394600E05F
:1006500002465068C008C000B84216D002F110032C
:10066000C80F03EB8003490018680028F0D1206907
:10067000834204D31E60B261F660B56011E003B03E
:10068000BDE8F04F00F09CBF0BE0216990688A4202
:1006900028BF8842F3D3C6609560B060F260002046
:1006A000B06103B0BDE8F08F2DE9F041714F054610
:1006B0003868884608B9FFF728FDB96801EB0800DB
:1006C0002F30491E20EA010188457DD205F5D876F4
:1006D000B06828B1326889188A4275D2884273D3CB
:1006E00000F072FF01001CBF0C6811F1010F6BD00C
:1006F0003068201805F5D87230605368984238BFCA
:1007000018467060A86960BB286908B1814200D2B0
:100710002961316174610020F06105F128023868B7
:1007200068624FF0FF3028620020D260926002F1D0
:10073000080353611361801C10322028F5D34E4802
:10074000854208BFA4F1280228D055F8040CC0083F
:1007500005EBC002A2F108000A19121A283A014654
:100760001CE005F5E070024600E092687AB3136879
:1007700057683B449942F8D1137B1F0727D4AB69D4
:100780001768BB4223D3D2F804C06744BB421ED2D1
:10079000A444C2F804C0E868A96922182846FFF7F3
:1007A000CDFC1FE08068C0B103689342FAD1027BA0
:1007B000130712D4026801604368E418446043469A
:1007C0002846BDE8F041D2E40020BDE8F0812A6966
:1007D000914238BF29610A19E5E7002322462846DD
:1007E000FFF766FEE8688045EED2A0EB0800A96935
:1007F000E86001EB0802AA6140F00100506048F097
:100800000300486001F10800BDE8F08138B4194BDD
:100810001A6882B94FF480525A604FF480344FF016
:10082000FF329C60DA601A610422134C134D5A6146
:10083000C4F8BC211D6011F1400F17D28269AAB122
:10084000C368283199420BD200F5E0710C68A242CE
:1008500003D34D682C44A24202D389680029F5D104
:10086000C16999423CBF4FF0FF31C16132BC0020E9
:1008700070470000E8040020980000206859883C78
:100880002DE9F84F00258946090AC9F1000B08BF78
:10089000002323D0B1F5803F28BF1F231ED2A1F52E
:1008A0008072120C02F008029140A1F580531B0CDB
:1008B00003F004039940A1F58044240CC2F10E0218
:1008C00004F00204D21A121BA14002EBD132D11D56
:1008D00029FA01F303F0010303EB4203074607F58E
:1008E000987858F8230030B31F2B0FBF4C465C0894
:1008F000C4F1190409FA04F4AC46594600E0640056
:100900004268D208D200A2EB09028A4203D2110047
:10091000054600F06881426910304FEAD47B50F8F8
:100920002B00002A1CBF824294460028E7D18B4648
:100930006046B0BBBDBB012000FA03F35B00584228
:1009400003437868034000F04D81584203405B1E2A
:10095000180B00F01000C340590901F00801CB400A
:100960009A0802F00402D3405C0804F0020408185C
:10097000E3401018C3F3400620183044F3401B181E
:1009800058F823000DE008464168C908C900A1EBEA
:10099000090159453CBF8B46054601690029F2D142
:1009A00040690028F0D1002D00F01C81B868A0EB50
:1009B0000900834580F0168138698542C0F01081B6
:1009C0006868C008C00009EB0B01884218BF00F03E
:1009D000F7FD05EB0906B54280F00281EC68D5F819
:1009E00018A0AC420CD0A8683969884222D3C168EB
:1009F000A94204BFA168A9421CD1C460A0601BE049
:100A000005F11402146834B905F1100214689CB1A0
:100A100001E01A46146804F114031968002902BFA2
:100A200004F1100318680028F3D139698A4228BFFD
:100A3000106001D200F0C4FDBAF1000F36D0E969B0
:100A400008EB81000268954209D10460200014D1AE
:100A5000E8697968012282409143796026E038692B
:100A6000824508D3DAF81000A84214BFCAF814402F
:100A7000CAF8104001E000F0A3FDBCB1386984421F
:100A800012D3C4F818A0286930B13969884226BF4A
:100A90002061846100F094FD686938B13969884249
:100AA00002D36061846101E000F08AFDBBF1100FA8
:100AB0000CD2D94449F003006860291D281D50F864
:100AC000090040F0010041F8090088E049F0030006
:100AD00068604BF0010070604FEADB0046F80BB035
:100AE0001F281DD807EBC00101F12804396821FA3D
:100AF00000F2D207A34605D4012202FA00F008430F
:100B0000386006E0A068396988422CBF834600F04F
:100B100057FDA660CBF80C60C6F808B0F4605EE044
:100B20005FEA1B2008BF002123D0B0F5803F28BF1B
:100B30001F211ED2A0F58072120C02F00802904014
:100B4000A0F58051090C01F004018840A0F5804314
:100B50001B0CC2F10E0203F00203521AD21A984083
:100B600002EBD032D01D2BFA00F101F0010101EBB4
:100B70004201F16100227261326108EB81007A6802
:100B800022FA01F3DB0707D4012303FA01F1114331
:100B900079600660B0611DE002681F291DBF490829
:100BA000C1F119010BFA01F1594600E00246506803
:100BB000C008C000584518D002F11003CC0F03EB59
:100BC0008403490018680028F0D13869834204D3AF
:100BD0001E60B261F660B66001E000F0F1FC13E166
:100BE00000F0EEFC0DE18B46A3E6396990688A427D
:100BF00028BF8842F1D3C6609660B060F2600020E2
:100C0000B061ECE72DE9F84F064688467168484226
:100C10000140491E080B00F01000C1404A0902F0D3
:100C20000802D1408B0803F00403D9404D0805F0B9
:100C300002051018E9401818C1F34004281806F5F9
:100C4000987A2044E14009185AF821104868C008F1
:100C5000C0000D46A0EB080909E001464868C0083D
:100C6000C000A0EB080048453CBF81460D4608691E
:100C70000028F2D149690029F0D130698542C0F0DD
:100C8000BE806868C00808EB090BC000584518BF53
:100C900000F096FC05EB08008542009080F0AF80E4
:100CA000EF68AC69AF420CD0A8683169884222D3A2
:100CB000C168A94204BFB968A9421CD1C760B86025
:100CC0001BE005F11402176837B905F11002176827
:100CD0009FB101E01A46176807F11403196800294B
:100CE00002BF07F1100318680028F3D131698A4266
:100CF00028BF106001D200F063FC002C31D0E969FC
:100D00000AEB81000268954208D107608FB9E86953
:100D10007168012282409143716022E0306984420F
:100D200005D32069A84214BF6761276101E000F084
:100D300047FCB7B13069874211D3BC61286930B133
:100D40003169884226BF3861876100F039FC6869E3
:100D500038B13169884202D37861876101E000F0DF
:100D60002FFCB9F1100F0BD24BF003006860291D66
:100D7000281D50F80B0040F0010041F80B003DE049
:100D800048F00301696049F00100291D41F808009D
:100D9000009840F80990D6F808804FEAD80BBBF1CC
:100DA000200F28BF00F00CFCB8F1000F22D006EB9A
:100DB000CB00776900F12804A246B8F1100F38BFC4
:100DC00000F0FEFB306820FA0BF1C90705D40121C1
:100DD00001FA0BF10843306006E0A06831698842EF
:100DE0002CBF824600F0ECFBA760CAF80C70C7F875
:100DF00008A0FC60C6F808900098706104E000F05C
:100E0000DFFB0020BDE8F28F05F10800BDE8F28F9E
:100E10002DE9FE4F0546AFF30080F52DDFF89C6706
:100E200080F004810B2D31BF10250B35ED08ED004E
:100E30003068EC08E04010F0030F46D0C04300F0EB
:100E40000100041906F1280000EBC408E700D8F8F7
:100E500008506868C008C000B84218BF00F0B0FB76
:100E6000D5F80890454508BF00F0AAFB4D4508BFDE
:100E700000F0A6FB6868C008C000B84218BF00F0C8
:100E80009FFBC84507D13168012000FA04F421EA2C
:100E9000040434600DE03069814508D3D9F80C00B2
:100EA000A84204D1C8F80890C9F80C8001E000F00D
:100EB00087FB47F003006860291D281D05F1080421
:100EC000C05940F00100C851F8E0B168A94280F073
:100ED000BE80002800F0A1804FF0010808FA04F15C
:100EE000490000FA04F4484201430C4060420440C7
:100EF000641E200B00F01000C440610901F00801DD
:100F0000CC40A20802F00402D440630803F00203BC
:100F10000818DC401018C4F3400718183818FC40B3
:100F2000241806F1280000EBC40AE700DAF808905C
:100F3000D9F80400C008C000B84218BF00F040FB58
:100F4000D9F808B0D14508BF00F03AFBD94508BF31
:100F500000F036FBD9F80400C008C000B84218BF42
:100F600000F02EFBDA4506D1316808FA04F421EAD4
:100F7000040434600DE03069834508D3DBF80C00CD
:100F8000484504D1CAF808B0CBF80CA001E000F045
:100F900017FB45F00300C9F804007F1B09F10401A9
:100FA00047F00100485109EB05000190C751B468B2
:100FB0004FEAD40ABAF1200F28BF00F001FB34B386
:100FC000CDF800A006F12800756900EBCA0AD346E7
:100FD000102C38BF00F0F4FA3168009821FA00F2C2
:100FE000D30704D408FA00F00843306007E0DAF8C9
:100FF0000800316988422CBF834600F0E1FACAF844
:101000000850CBF80C50C5F808B0C5F80CA0B76074
:1010100009F108040198706150E07068C0B3294676
:101020003046FFF7EFFD040011D047E015F1400F07
:1010300028BF4FF0FF350AD20B35ED087068ED0080
:1010400028B129463046FFF71BFC040036D1B068B2
:10105000A8421DD3411B726910290AD3501970612F
:10106000B16041F001034360415045F00305556014
:101070000BE00021B1607161131D40F0030151606C
:10108000111D095841F00101195002F1080415E041
:10109000F06885420DD2401BB169F0604A19B26117
:1010A00040F00100506045F003054D6001F1080477
:1010B00004E029463046FFF7F7FA0446AFF3008014
:1010C0002046FFF7EEBA002800D170472DE9FC4713
:1010D000A0F10805AFF30080DFF8E06432699542C3
:1010E000C0F05982686800F00301012900F05382C2
:1010F000C1084FEAC109C10705EB090839D42C68BA
:1011000010F0030F00F04982604205449542A1446B
:10111000C0F041827069854200F0C780E408202C4D
:101120005ED2D5F80CA0AF68554508BF00F048FA6C
:10113000BD4208BF00F044FA6868C008C000B0EBC8
:10114000C40F18BF00F03CFA06F1280000EBC40001
:10115000874205D031698F423FD3F968A9423CD11B
:10116000BA452CD13068012101FA04F420EA0404C4
:101170003460454580F00F82D8F80440E00740F124
:101180000A82A00700F16881B069804540F0A08024
:10119000F068B5618144C6F80C9049F001006860C0
:1011A0007069854202D100207061B060F0694845E5
:1011B00080F0F38100213046FFF728FBEDE1824506
:1011C00006D03069824508D3DAF80800A84204D175
:1011D000C7F80CA0CAF80870CBE700F0F1F9C8E72F
:1011E000EC68AF69AC420BD0A868904223D3C168C9
:1011F000A94204BFA168A9421DD1C460A0601CE03F
:1012000005F114031C6834B905F110031C68A4B17E
:1012100001E063461C6804F1140CDCF8001000299E
:1012200002BF04F1100CDCF800000028F1D1934259
:1012300028BF196001D200F0C3F9002F99D0E969E5
:1012400006F5987000EB81000268954209D10460B0
:10125000200011D1E86971680122824091437160D8
:1012600087E73069874205D33869A84214BF7C619B
:101270003C6101E000F0A4F9002C3FF47AAF316941
:101280008C42AAD3A761286928B1884226BF206171
:10129000846100F095F9686900283FF46AAF31690C
:1012A00088429AD36061846163E798F8040000F093
:1012B000030003287FF45DAFC6F8089049F00101F0
:1012C000D8F8040040084000C8F8040069600AE04B
:1012D000706980450AD1B06875618144C6F808908C
:1012E00049F00100686045F8099056E1E408E4001F
:1012F000A144E408202C3AD2D8F80CA0D8F8087001
:10130000D04508BF00F05CF9B84508BF00F058F9B7
:10131000D8F80400C008C000B0EBC40F18BF00F03C
:101320004FF906F1280000EBC400874207D031696D
:101330008F42C0F08480F968414540F08080BA4512
:1013400007D13068012101FA04F420EA0404346072
:1013500077E0824506D031698A4570D3DAF8080013
:1013600040456CD1C7F80CA0CAF8087069E0D8F8FD
:101370000C40D8F8187044450DD0D8F808003169F1
:10138000884222D3C168414504BFA16841451CD1B0
:10139000C460A0601BE008F11402146834B908F1BD
:1013A000100214689CB101E01A46146804F1140399
:1013B0001968002902BF04F1100318680028F3D14E
:1013C00031698A4228BF106001D200F0F9F8002F7D
:1013D00037D0D8F81C1006F5987000EB8100026831
:1013E00090450AD10460200012D1D8F81C00716821
:1013F000012282409143716023E03069874205D326
:101400003869404514BF7C613C6101E000F0D8F8C8
:10141000BCB131698C4212D3A761D8F8100028B151
:10142000884226BF2061846100F0CAF8D8F8140011
:1014300038B13169884202D36061846101E000F013
:10144000BFF849F00100686045F80990706985426D
:101450000BD1C6F80890A0E064086400C8F8044006
:1014600049F00100686045F809904FEAD907202F3C
:1014700022D206F1280000EBC704A046B9F1100FF4
:1014800038BF00F09DF8306820FA07F1C90705D48D
:10149000012101FA07F70743376006E0A0683169C8
:1014A00088422CBF804600F08BF8A560C8F80C502D
:1014B000C5F80880EC6070E05FEA192008BF0021E1
:1014C00023D0B0F5803F28BF1F211ED2A0F5807227
:1014D000120C02F008029040A0F58051090C01F0B6
:1014E00004018840A0F580431B0CC2F10E0203F0FA
:1014F0000203521AD21A984002EBD032D01D29FAB8
:1015000000F101F0010101EB420106F5987202EBD6
:10151000810000226A612A61E961726822FA01F39E
:10152000DB0707D4012303FA01F111437160056061
:10153000A8611DE002681F291DBF4908C1F11901FA
:1015400009FA01F1494600E002465068C008C000AF
:10155000484526D002F11003CC0F03EB8403490069
:1015600018680028F0D13069834204D31D60AA6155
:10157000ED60AD6001E000F023F8306A401E30629B
:101580000BD1D6F8C80100E080680028FCD14FF0EC
:10159000FF30306201E000F013F8AFF30080BDE8E7
:1015A000F387316990688A4228BF8842E3D3C560D7
:1015B0009560A860EA600020A861DEE7980000203E
:1015C000012000F017B800000749086808B10020A2
:1015D00070470648C008C00008600549C908C9002E
:1015E000091A0160704700BF140500201F09002080
:1015F000180B002080B5AFF30080024A11001820BC
:10160000ABBEFBE726000200F8B5040016D004F1DB
:101610003C05687820B900212970204600F01BFCA9
:1016200000F066F800F036FF01466068DFF8DC2263
:10163000904205D2DFF8D802814205D20120F2BDE6
:10164000DFF8D0028142F9D3DFF8CC02B1FBF0F32E
:10165000206843606668964206D34FF49670434311
:101660004FF47A76B3FBF6F327685B1C3B62491EA6
:101670006368934206D25B0000F034F8042813D26A
:10168000042011E0A06820B903EB430300F02AF81E
:1016900005E01920434300F025F840F4804001059F
:1016A0000CBF012040F400402168C861E269206A53
:1016B0000243206802602169E0680143206881607C
:1016C0006169A06901432068C1602068016841F038
:1016D0000101016000206860202068700020206304
:1016E000A870F2BDB1FBF3F0401CC0F30B007047D3
:1016F000242068702068016849084900016070472B
:101700002DE9FC4700F02CF900F0F3F843D100F08C
:101710001DF900283FD1387801283CD000F0CFF8DF
:10172000212000F0BAF800F0C7F940B17868042829
:1017300002D1002139702AE00020387029E000F041
:10174000D0F8308D002829D000F0EDF8C8B900F0AD
:10175000EFF800F0F7F8308D401E308531684A69A7
:10176000530706D580B220B1706A421C726200F045
:1017700018F800F0D3F80028E3D07868042808D1DE
:1017800002E07868042804D1306800F08BF9012069
:1017900002E0032000E00220BDE8F68700F0E6F852
:1017A000FAE700780861708D411E7185308D411E09
:1017B000318570472DE9FC4700F0D2F800F099F828
:1017C00060D100F0C3F800285CD13878012859D0E6
:1017D00000F075F8222000F060F800F0B8F940B190
:1017E0007868042802D10021397043E00020387065
:1017F0003EE0308D10B900F04EF914E03168012858
:1018000002D100F02EF904E00228086804D100F0AB
:1018100018F9016062B606E000F007F903E000F095
:10182000BCF800F08CF8308D00282ED0042819D296
:10183000012804D100F0C8F80028F0D015E000F02D
:10184000A6F807D100F024F8002811D172B600F0F4
:10185000C0F8E4E700F01CF8002809D100F0CCF84B
:1018600030B9F4E700F0B0F830B17868202801D141
:10187000032008E0012006E000F096F8D3D500F040
:1018800080F8CEE70220BDE8F68700F038F8FAE7E6
:1018900000224146304600F0C9B978702A4610202F
:1018A000B870414600207860C6F82490A6F82AA0B7
:1018B000DFF8A800F062708D308530467047012156
:1018C000397030680168CA0703D4026842F0010227
:1018D0000260234630680A9D016821F400610160BE
:1018E00070470090306841690091806900900099CC
:1018F000704706F13C07044678782028704720207E
:1019000078700020B870387070470000A186010020
:1019100080841E0000093D0040420F0022462946F7
:10192000304600F014BA22462946304600F0F5B998
:10193000706A411C71623168007808617047308DAF
:10194000411E3185708D411E7185704700941923A9
:101950000122DFF85C11304600F068B90000FFFF9B
:101960000646884691469A4600F0C6BD3068016832
:1019700041F400710160202078700020B870387048
:101980007047716A4A1C72620069087070470228C9
:10199000DFF8208100942B467047706A411C716209
:1019A00031680A6902707047706A411C716231685F
:1019B0000A690270308D411E3185708D411E71851E
:1019C000306841694A07704722462946304600F090
:1019D000E5B93068016841F400710160706A411C2A
:1019E000716231680A690270308D411E3185708DD7
:1019F000411E718562B670473068016821F48061CC
:101A0000016072B62B46706A411C716231680A69C6
:101A100002700022308D411E3185708D411E71850E
:101A200000944146304600F001B940F480600860FF
:101A3000002100913068416900918069009000990F
:101A4000704740F40060086072B600210091306871
:101A500041690091826900920099016821F48061D6
:101A60007047086820F48060086072B60021009119
:101A7000306841690091826900920099016841F4DF
:101A8000007170470090206841690091826900925E
:101A90000022009970470090306841690091826986
:101AA00000920099016841F40071016070470000E4
:101AB0000200100004000100F8B504460D46E06A7B
:101AC00004281EBF01285849884216461F4602D1E5
:101AD00000F030F804E0206B122801D100F091F8FA
:101AE0000097334600F02EF810BB2069B0F5804F08
:101AF00004D1216805F0FE050D610EE0E8092168BA
:101B000000F0060040F0F00008613B4632464549CF
:101B100000F084F838B900F07AF83B463246404984
:101B200000F07CF828B1206C042801D10120F2BD1E
:101B30000320F2BD2068016841F4807101607047A4
:101B40000096534600224FF0011120466EE02DE929
:101B5000F84304460D46E06A216891460A6842F45B
:101B600080620A6004281EBF01282F4988421E4651
:101B700002D1FFF7DFFF04E0206B112801D100F054
:101B800040F800964B46FFF7DDFF002836D120696C
:101B9000DFF88C80B0F5804F05D1216845F0010554
:101BA000EDB20D6122E0EF09216807F0060747F06A
:101BB000F000086133464A461A4900F02FF8002821
:101BC00017D100F024F800F026F890B900904B46A9
:101BD000FFF759FF016841F4807101600096FFF73B
:101BE000B2FF58B9206847F0F107076100F013F819
:101BF00028B1206C042808BF012000D00320BDE8D4
:101C0000F2832068036843F48073036070472068A0
:101C1000EDB20561704733464A46414620463BE0F7
:101C200002000100080001000000FFFF2DE9F84359
:101C30000F46089C3D020646904699462D0E306898
:101C4000012D1ED14069384080B2B9B288421ED001
:101C5000002040451DD119F1010FF0D0B9F1000F5E
:101C600004D000F049FC001B8145E8D2002030631D
:101C7000202106F13C004170002181700170032099
:101C800008E08069384080B2B9B28842E0D10120D2
:101C9000DFE70020BDE8F2832DE9FC410F463E025C
:101CA000054614469846360E2868012E18D141691B
:101CB000394089B2BAB2914218D041694A0517D564
:101CC000026842F4007202606FF480602968486123
:101CD00005F13C0004224260002100F088F81AE07F
:101CE0008169394089B2BAB29142E6D1002012E04E
:101CF00014F1010FD8D02CB100F0FEFBA0EB0800CE
:101D00008442D1D200202863202105F13C0041709B
:101D1000002101700320BDE8F68170B505460C4630
:101D200016462868416908060FD4284600F066F870
:101D300008B1012070BD14F1010FF2D024B100F000
:101D4000DBFB801B8442ECD21BE0002070BD70B531
:101D500005460C4616462868416948070FD42846B0
:101D600000F04CF808B1012070BD14F1010FF2D061
:101D700024B100F0C1FB801B8442ECD201E00020C2
:101D800070BD05F13C000022416841F02001416036
:101D90002A63202141700270032070BD70B5054692
:101DA0000C461646286841694A061ED44169CA068F
:101DB00011D424B100F0A0FB801B8442F2D205F1C3
:101DC0003C002022416841F0200141604270002126
:101DD0000170032070BD6FF01001416105F13C00FE
:101DE0000021416000F003F870BD002070BD296340
:101DF00020214170002101700120704701684A696B
:101E000053050DD56FF480634B6100F13C01042252
:101E10004A6000220263202048700A700120704747
:101E20000020704780B56F486F4901606F4941607D
:101E300000218160C1604FF4804101610021416156
:101E40008161C1610162FFF7DFFB18B1BDE80140AC
:101E500000F060BC01BD2DE9F84185B0054668463B
:101E6000102100F059FC29685F4A914249D1604E27
:101E7000DFF88081306840F0080030604FF4407730
:101E8000316801F0080104911121049801910320A7
:101E9000039000F03CF80A2400F03EF800F034F81B
:101EA000002200F03AF800F02FF8641EF4D100F0A0
:101EB00033F801224FF40071404600F05AFD00F063
:101EC00023F82868016841F40041016000F01CF823
:101ED000296800200860032112200190039100F07E
:101EE00016F84548016841F0E06141F002010160E7
:101EF000706840F400107060706800F4001000908A
:101F0000009806B0BDE8F081012000F053BD0097B5
:101F10006946404600F004BC01224FF480714046FF
:101F200000F027BD00683049884209D13348016874
:101F300021F4001101604FF440712E4800F0B1BC53
:101F40007047F3B581B004460A20009015461E463E
:101F5000244F012302AA21463846FFF7D1FB010096
:101F600007D10A20009033462A4621463846FFF71B
:101F700021FCFEBD2DE9FC4104461F460D4690465E
:101F8000781CFEF745FF06463A464146701C00F0B5
:101F900025FD35700A2100917F1CBBB232462146D7
:101FA0001048FFF7ADFB0446304600F06AFD2046BE
:101FB000BDE8F6811CB500208DF80000094C2046D4
:101FC000FFF7B0FF002084F83D00FFF72BFF01234F
:101FD0006A467521D020FFF7B4FF9DF80000112854
:101FE000EDD113BD2003002000540040A086010065
:101FF00018100240000C0140040001401C10024077
:102000002DE9F8430646DFF8B0543078C1074AD5C9
:10201000686800F00C00042807D0686800F00C0025
:1020200008280BD16868C10308D5296888033AD508
:102030007068002840F0C080012069E17068B0F548
:10204000803F0FD038B9296821F480312960286891
:1020500020F4802009E0B0F5A02F296807D141F4D1
:1020600080212960286840F48030286006E021F44F
:10207000803129602A6822F480222A60706868B161
:1020800000F03AFA04462968880300F1958000F0D0
:1020900033FA001B6528F6D3032039E100F02CFA4F
:1020A00004462868810340F1878000F025FA001B70
:1020B0006528F6D3F0E700F01FFA001B022840F273
:1020C000AA80E9E7306970B10121396000F014FAA3
:1020D00004462868810700F1DC8000F00DFA001B3F
:1020E0000228F6D9D8E7386000F006FA04462868D6
:1020F000810765D500F000FA001B0228F7D9CBE76D
:10210000086000F0F9F90446686A810777D500F0A5
:10211000F3F9001B0228F7D9BEE708B9286A09E0DD
:102120000528286A06D140F004002862286A40F099
:10213000010005E0400840002862286A20F0040001
:10214000286241F28938F06868B100F0D5F981461B
:10215000286A810700F1AA8000F0CEF9A0EB0900FF
:102160004045F5D398E700F0C7F98146286A810712
:1021700040F19C8000F0C0F9A0EB09004045F5D388
:102180008AE700F0B9F9001B022840F2A28083E739
:1021900000F0B2F9001B022840F2B5807CE700F0A5
:1021A000B9F804462868810140F1B18000F0A4F933
:1021B000001B0228F6D96FE73078DFF80873810733
:1021C0001BD5686810F00C0F09D0686800F00C008F
:1021D00008287FF477AF6868C1033FF573AF2968BB
:1021E000880703D5306901287FF426AF2968706914
:1021F00021F0F80141EAC0012960317808071DD5B6
:10220000B069DFF8C41200283FF47AAF01220A60F7
:1022100000F072F90446686A81077FF54CAFDFF879
:102220009C120868C0084FF47A72B0FBF2F2009278
:1022300000BF0098411E00280091F9D13078410775
:1022400039D5E8690024C10009D4E86940F080501C
:10225000E8610124E86900F0805000900098DFF800
:102260006C82D8F80010C8051BD4D8F8000040F4E0
:102270008070C8F8000000F03FF98146D8F80010DF
:10228000C8050ED400F038F9A0EB09006528F5D395
:1022900002E72868716920F0F80040EAC100286070
:1022A000ABE7F06801287FF438AF3FE71CB1E8697D
:1022B00020F08050E861F06948B3696801F00C01D2
:1022C00008293FF4B9AE02287FF469AF00F022F884
:1022D0000446286881013FF554AF306AB0F5803F6D
:1022E00005D16968B06821F400310143696069680B
:1022F000306A21F474110143706A0143696001205E
:1023000000F009F80446286881017FF541AF0020FC
:10231000BDE8F2830020386600F0EEB82DE9F843FE
:102320006B4F05463868894600F00700484502D2E1
:1023300000F087F879D128685F4C810712D54007F3
:1023400003D5606840F4E06060602978080703D531
:10235000606840F4605060606168A86821F0F00136
:10236000014361602878C10757D56868012802D108
:1023700021688A0303E0022803D121688A0103D47B
:1023800053E02268910750D56168890840EA8100CE
:10239000606041F2893800F0AFF8064668680128AD
:1023A0000BD1606800F00C00042836D000F0A4F8CF
:1023B000801B4045F5D303202DE0022837D160680B
:1023C00000F00C00082828D000F096F8801B40454B
:1023D000F5D3F0E72878410705D56168E86821F46E
:1023E000E061014361602878010706D560682969CA
:1023F00020F4605040EAC100606000F02DF862688F
:102400003449C2F30312895C2C4AC8401060002092
:1024100000F03AFB0020BDE8F283386800F00700C6
:102420008145D7D200F00DF8D4D00120F3E76068E1
:1024300010F00C0FF1D000F05FF8801B4045F6D390
:10244000B9E73968C90849EAC1013960386800F05C
:1024500007004845704700001F4919480A6802F004
:102460000C03082B00D0704710B500BF1DA4C2F3A9
:102470008343D203E35C09D5096800BF1DA2C1F301
:1024800040415843515CB0FBF1F010BD1846134970
:10249000484310BD0948104A006813681049C3F347
:1024A000022206E005480C4A006813680C49C3F391
:1024B000C222895CC8407047001002403C000020E6
:1024C00000127A0000004242800442420070004044
:1024D00000200240944D00080410024000093D0015
:1024E000FC4E000802030405060708090A0B0C0D40
:1024F0000E0F10100102000001484068704700BF35
:10250000300000202DE9FC4700F0DEFA00F081F8F1
:1025100000F0ECFA00F060FB00F076FB00F0CCFB82
:10252000FFF780FC00F0A4FC00F0AFFC00F032FDEF
:1025300000F0C8FD734C744F204600F0A8FE002246
:102540004FF40041714800F014FA00F01DFC4FF404
:102550007A7540F266663CE097F90100B870042293
:102560006946304600F045FC042107F1200000F0E8
:10257000A4F897F90200684300F026FF8246B7F9F5
:10258000080000F021FF8146B7F9060000F01CFFAB
:102590008046B7F9040000F017FF53464A4641460B
:1025A00000F0E7FD0622391D07F1100000F026FAC1
:1025B000B878401EB87040B2002807D50020B87027
:1025C00004213A7807F1200000F081F8052000F09E
:1025D000F1F90020009007F11802391D204600F0A3
:1025E00016FE97F90200B7F90C2000210028C0D18F
:1025F0003B1D07F1100033F9113030F91100181AA2
:1026000048BF404282420090A6DB491C0229EFDD10
:10261000AFE700B593B009A8282100F07DF804A821
:10262000142100F079F86846102100F075F80120B7
:10263000099000214FF480300A9011900B914FF4D3
:10264000E0100122022112900D92109109A8FFF7CB
:10265000D7FC00B1FEE70F20022104900591002075
:102660004FF48061069007910890022104A8FFF7BB
:1026700055FE00B1FEE7022000904FF400410291A8
:10268000684600F0B3FE00B1FEE713B000BD0429B8
:1026900000D0704710B502781B4B1A704178597002
:1026A00003F10C0110F8024F0C7044784C700421B7
:1026B000BDE8104003F1200009E000226FF07F43E5
:1026C00002E040F82230521C8A42FADB16E0012A6E
:1026D00004D00BD3032A06D002D307E0FF2206E082
:1026E0004FF47F4203E04FF47F0200E0084A0023EA
:1026F00002E040F823205B1C8B42FADBC9B200F0F9
:10270000FABE0000C80400200000002000100140B4
:1027100001010100FEE70000002200F029BF0000D7
:102720002DE9F84F83460F46002080469449954A8C
:10273000954B4FF00F094FF0010A3C680AFA08F672
:1027400006EA040EB64540F0A4807C683CB3012C38
:102750001AD0022C1DD0032C2ED0112C16D0122CE6
:102760001AD08A4DAC421CBF894DAC4217D0894D5E
:10277000AC421CBF884DAC4211D0884DAC421CBF4E
:10278000874DAC420BD018E0F86816E0F868001DE1
:1027900013E0F868083010E0F8680C300DE0B86815
:1027A00008B9042009E0012819BF0820CBF81460FB
:1027B0000820CBF8106000E00020BEF5807F03D237
:1027C000DC464FEA880404E0A8F108040BF1040C8D
:1027D000A400DCF8005009FA04F6B54300FA04F44A
:1027E0002C43CCF800407C68E40052D51C6844F0CF
:1027F00001041C604FEA980C1D6805F00105009566
:10280000009C52F82C604FEA880404F00C0409FA8A
:1028100004F526EA0505634EB34508BF00260ED031
:10282000614EB34508BF012609D0604EB34508BFCD
:10283000022604D05E4EB3450CBF0326042606FADA
:1028400004F42C4342F82C406FEA0E067C68E50342
:1028500004D50D684EEA05050D6002E00C683440B1
:102860000C607C68A5034C684CBF4EEA04043440FD
:102870004C607C68E5028C684CBF4EEA040434402E
:102880008C607C68A502CC684CBF4EEA04043440DE
:10289000CC6008F10108B8F10F0F7FF64EAFBDE82C
:1028A000F18F2DE9F84F0022354BDFF8F880DFF883
:1028B000D4900F264FF0010B82461BE03C4FBA45E7
:1028C00014BF0427032707FA0CF7BD4211D159F8AA
:1028D000245025EA0E0549F824501C6804401C6069
:1028E0005C6804405C609C6804409C60DC6820403C
:1028F000D860521C31FA02F039D00BFA02F00840CD
:10290000F7D0B0F5807F03D2D4464FEA820E05E0BF
:10291000A2F108040AF1040C4FEA840EDCF800402E
:1029200006FA0EF5AC43042505FA0EF52C43CCF857
:102930000040C043DAF80C400440CAF80C4097004D
:10294000940859F8245007F00C0C06FA0CFEC24506
:102950000EEA050508BF0027B5D0134FBA4508BFDA
:102960000127B0D0114FBA45A8D10227ABE7BDE887
:10297000F18F81B002B90904016101B07047000014
:10298000000401400800014018100240000011102E
:102990000000121000002110000022100000311071
:1029A0000000321000080140000C014000100140FE
:1029B0000014014038B50446FFF79EFD14F1010FE5
:1029C000054602D0044908780419FFF795FD401B1D
:1029D000A042FAD331BD00BF3000002062B38B07A4
:1029E00008D0521E11F8013B00F8013B00F0248092
:1029F0008B07F6D1830740F0208000BF103A07D341
:102A000030B4B1E83810103AA0E83810F9D230BC30
:102A1000530724BFB1E80810A0E8081044BF51F8DC
:102A2000043B40F8043BD20724BF31F8022B20F8C6
:102A3000022B44BF0B7803707047121F17D35B0043
:102A400009D151F8043B20F8023B1B0C121F20F85F
:102A5000023BF6D20BE051F8043B00F8013B1B0AA5
:102A600020F8023B1B0C121F00F8013BF3D238BFC9
:102A7000121D521E24BF11F8013B00F8013BF8D88B
:102A80007047FEF720BB000038B50D4D0D4A297880
:102A900004464FF47A70B0FBF1F11068B0FBF1F02E
:102AA00000F0C3FD50B9102C08D2002221464FF08F
:102AB000FF3000F093FDAC60002032BD012032BD3C
:102AC000300000203C00002080B50748016841F03C
:102AD00010010160032000F074FD0020FFF7D4FF17
:102AE00000F0C4FD002002BD0020024078B585B092
:102AF00068461021FFF710FE2E482F4D04682F4E18
:102B000044F01004046001682D4C01F010010491A0
:102B10000499016841F020010160026802F020027E
:102B200004920499016841F004010160026802F016
:102B30000402049201220499016841F00801016035
:102B40004FF40041006800F008000490049820460B
:102B5000FFF70FFF012210212846FFF70AFF00228E
:102B60004FF480513046FFF704FF4FF4C04000900F
:102B7000002014490191029069462046FFF7D0FDDC
:102B80004FF4004000F020F820466946FFF7C8FDEA
:102B9000102000F019F828466946FFF7C1FD4FF4F0
:102BA000805000F011F830466946FFF7B9FD06B0D5
:102BB00070BD00001810024000080140000C0140E8
:102BC000001001400000111001210090019100202F
:102BD000022102900391704780B50A48016841F0D4
:102BE000010101600022006800F001000090012155
:102BF00000980F2000F0F2FCBDE802400F2000F02A
:102C00000ABD00BF141002403EB5684600210022F4
:102C1000002380E80E004FF46020234C234DE06138
:102C2000A16001202061E160616161602560204652
:102C300000F03EFD08B1FFF76DFD0320009001217B
:102C40000020019102906946204600F0ABFD08B1DA
:102C5000FFF760FD37BD18B585B0044601A8102107
:102C6000FFF75AFD2168114A91421AD110480268B3
:102C700042F4007202600322016801F400710091C5
:102C80000099016841F0040101600821006800F02A
:102C900004000090009807480191029201A9FFF7F3
:102CA0003FFD06B010BD0000F803002000240140E5
:102CB000181002400008014080B56748674901606C
:102CC0000321416000218160C1604FF40021016156
:102CD0004FF48011416100218161818300F00EFE7B
:102CE00018B1BDE80140FFF715BD01BD18B585B0AD
:102CF000044601A81021FFF70FFD2168574A9142B1
:102D000040D15748574C416841F000714160002262
:102D1000416801F0007100910099016841F00401DF
:102D200001604FF40061006800F00400009000981A
:102D300001910292039201A92046FFF7F1FC4FF4A2
:102D400080500190022103200291049001A92046A5
:102D5000FFF7E6FC00220121132000F03FFC1320C6
:102D600000F059FC00220121142000F037FC14204F
:102D700000F051FC00220121152000F02FFC15204D
:102D800000F049FC06B010BD10B501218AB000204A
:102D90000691059046F260610790009101900290C3
:102DA000039004900E2101200890099169462A4C55
:102DB000204600F02AFE08B1FFF7ACFC204600F0E8
:102DC0008BFE08B1FFF7A6FC0221204600F0AAFF07
:102DD00008B1FFF79FFC244840F2666101600AB029
:102DE00000214160C1608160022101610021017503
:102DF00010BD092A00DB704710B51B4C2060226112
:102E000004F11800FFF7EAFD04F1200304F11802B1
:102E10002146114800F099FE18B1BDE81040FFF7B7
:102E200079BC10BD10B5114C04F11C0322460021E1
:102E300000F0F9FE08B1FFF76DFC206840F2333175
:102E4000884206D1216904F11C00BDE81040FFF75B
:102E50001EBC10BD000000005804002000640040AB
:102E6000181002400008014080040020A404002043
:102E700080B54148414900F01BF81821C16100218B
:102E800000F00FF800B120E001BD80B53C483D499D
:102E900000F00EF80021C16100F003F800B114E069
:102EA00001BD0162416281620A21C16201F044B840
:102EB00001604FF48271416000218160C160016155
:102EC00041614FF4007181617047BDE80140FFF737
:102ED00021BC18B585B0044668461021FFF71CFCDC
:102EE0002068264A2849904217D10868274C40F4A8
:102EF000805008600A6802F480520492022204980A
:102F0000086840F004000860096801F004010491B9
:102F1000A02100F028F840201BE01A4A904220D15E
:102F200048681B4C40F4804048600222486800F426
:102F3000804004900498086840F008000860096820
:102F400001F0080104914FF4204100F00CF84FF417
:102F50008040002100900191029120466946FFF7D0
:102F6000DFFB06B010BD049800910320039001928E
:102F700069462046FFF7D4BB7002002000300140B4
:102F8000C80200200038004018100240000801402C
:102F9000000C014030B500BF48A1424CD1E90023EC
:102FA00089B002A8CDE900231C21FFF7B5FB002062
:102FB0006060A0604FF080455620E06025600020F2
:102FC0002061A061204601F05FF808B1FFF7A2FB85
:102FD0000020009001906946204601F083FA08B174
:102FE000FFF798FB60200021029003910491069165
:102FF000002202A9204601F0FBF808B1FFF78AFB86
:10300000204600F02FF809B030BD38B504462068DE
:10301000B0F1804F25D12448244D016841F00101D1
:1030200001600068224900F00100009000982960CA
:103030000020A86010218020E86069604FF4807053
:1030400028614FF4806068610020A8614FF48050CF
:10305000E861284601F06CFA08B1FFF75BFB656296
:103060006C6231BD18B585B0044601A81021FFF788
:1030700053FB2168B1F1804F12D10E48026842F033
:10308000040202600121006800F0040000900222A6
:103090000098094801910292049201A9FFF740FBB0
:1030A00006B010BDB80300201C10024074030020BD
:1030B00058000240181002400008014000000000C3
:1030C0000000000080B53D483D4981614FF4E13189
:1030D000C16100210162416281620C21C162002153
:1030E00001634163183001F0A1FB18B1BDE8014054
:1030F000FFF710BB01BD18B585B0044601A810212B
:10310000FFF70AFB21682E4A914230D12D482E4C00
:10311000026842F4804202600222016801F48041A8
:1031200000910099016841F0040101604FF40071C1
:10313000006800F0040000900098019103200490C2
:10314000029201A92046FFF7EBFA4FF480600021BC
:10315000019002910391204601A9FFF7E1FA0022B4
:103160000121252000F03AFA252000F054FA06B09B
:1031700010BD0FB511490D20087581B00A204875A2
:103180000A1D01A80368136002A801F10802036880
:10319000136003A801F10C020368136004A801F195
:1031A00010020368136016224FF4FA6301F118004D
:1031B00001F078FB05B000BD0000000040000020D9
:1031C00000380140181002400008014034B50446A0
:1031D000207D256801236A46A847E17D88421CBFFF
:1031E000204600F001F831BD10B50446208B401C8C
:1031F000208380B2152803DBA0688047002020834D
:1032000010BDC27D914218BFFFF7EEBF7047FEB5FB
:1032100004460E461546207D676806236A463B2114
:10322000B84701462046FFF7ECFF00F029F831804F
:10323000062300F01EF871806A4600F013F8B18092
:10324000207D66684321B04701462046FFF7D9FF3D
:1032500000F016F8298000F00CF8698000F002F800
:10326000A980F7BD9DF804009DF8051041EA0021F2
:1032700070479DF802009DF8031041EA0021704755
:103280009DF800009DF8011041EA002170472DE9EA
:10329000F8430746D020387500214048404C414D46
:1032A000414EDFF80891DFF80881786041483860C6
:1032B0004148F860F9754149B960386118214048C2
:1032C000F86118207875F869417001218170082033
:1032D000F969087001E0B8688047F96832208847CA
:1032E00001226B2100F06EF80022192100F06AF82B
:1032F00002221A2100F066F8F86902781B2100F01A
:1033000061F8F86942781C2100F05CF8F86982786D
:103310001D2100F057F8F869C0F80C80022237210F
:1033200000F050F8F96832208847F869017841B117
:10333000082908D0102908D0182908BFC0F804901F
:1033400004E0446002E0456000E04660417831B14D
:10335000082906D0102906D0182906D007E0022136
:1033600004E0042102E0082100E010210181002096
:103370008DF800000123387DD7F804C06A46752116
:10338000E047F97D88421CBF3846FFF72DFF9DF8C6
:103390000000B87511289ED1BDE8F183431F0008D5
:1033A00000007A430000FA4300007A440000FA4427
:1033B000E17A4442751F0008B5290008B51F0008CE
:1033C00000050020384601E7C2175040801AB0FAC5
:1033D00080F10AD08840D1F19D01D20742EAC15163
:1033E000020672F1004241EB102070472DE9FC41CA
:1033F0000646354D3078C10750D5A8690024C10074
:1034000009D4A86940F08050A8610124A86900F09F
:103410008050009000982D4F3968C80517D438683F
:1034200040F480703860FFF767F880463968C80557
:103430000DD4FFF761F8A0EB08006528F6D3032050
:103440003FE0FFF759F8C01B404519D3F7E7E8699B
:1034500010F440701EBF716801F44071884212D0B0
:103460001B49E86901220A6020F4407000220A60CA
:10347000E861C00707D5FFF73FF8074641F28938F2
:10348000E8698107DDD5E969706821F4407101437D
:10349000E9611CB1A86920F08050A86131788807E3
:1034A00005D52A68B06822F4404202432A60307889
:1034B000C10605D52968F06821F48001014329601F
:1034C0000020BDE8F68100000410024000700040BA
:1034D0004004424210B5014600221723214821FA38
:1034E00003F4E4074CBF2B24152420F81240521C8F
:1034F0005B1EF4D510BD2DE9FC470F4618257D4312
:1035000082466D1C6800FDF783FC174E3060690031
:1035100001F0D6FB00244FF030080BE05AF82400ED
:10352000FFF7D8FF014608FB04F030224844FFF7BC
:1035300055FA641CD6F80090BC42EFDBABB24A46A9
:1035400002B0BDE8F0470021084800F041BD80B559
:1035500005480068FFF795FABDE8044000210348DC
:1035600000F067BD2804002010050020B8030020EB
:1035700000B500BF130096469446103928BFA0E856
:103580000C50FAD85FEA417C28BF0CC048BF40F815
:10359000042BC90728BF20F8022B48BF00F8012BD5
:1035A00000BD00000901020081B006D5294A00F0E3
:1035B0000F00104400F8041C01E0274B195401B01F
:1035C0007047264A13684FF6FF0100020B4000F4D3
:1035D000E0601843224908431060704738B51F4B1C
:1035E0001C68C4F30223C3F10704052C28BF04247C
:1035F0001D1D072D34BF0023DB1E012505FA04F431
:10360000641E2140994005FA03F35B1E1A401143E2
:10361000BDE83440C6E7012200F01F01114BFFE76F
:103620008A40400943F82020704710B5401EB0F191
:10363000807F01D3012010BD0B4C60600F214FF043
:10364000FF30FFF7AFFF0022A260072020600020BC
:1036500010BD000018ED00E000E400E00CED00E01B
:103660000000FA0500E100E010E000E00E4881B043
:10367000016841F001010160026802F0010200925C
:103680000099416841F080514160406800F08050ED
:10369000009000980548016821F0E06141F0007158
:1036A000016001B0704700BF1810024004000140E3
:1036B000F8B5044600270026002C71D004F124053B
:1036C000686820B9AE6028702046FFF7C4FA20462B
:1036D00000F0F2F86968CA065ED401005CD169683E
:1036E00021F4885141F0020169606368E269E16890
:1036F0001343A268B2F5807F14BF012A4FF480778C
:103700006269012A43EA41030FD131B9A169491E17
:10371000490341F400610F4307E0696841F020016B
:103720006960A96841F00101A96021684A6822F432
:10373000694217434F602268DFF8641197680F40B1
:103740001F439760A168B1F5807F18BF012902D19E
:103750002669761E36052168CA6A22F4700216436D
:10376000CE622468DFF83C11A2680A409A4208D170
:103770000021A960696821F0020141F0010169603E
:10378000F2BD686820F0020040F010006860A86890
:1037900040F00100A86003E0686840F01000686035
:1037A0000120F2BDF8B50A46002100F12403009182
:1037B0001C78012C01D10220F2BD01251D701F27AC
:1037C000546815680668072C08D2641E04EB84044C
:1037D000D6F834C000F05EF8756312E00D2C08D204
:1037E000E41F04EB8404D6F830C000F053F83563CE
:1037F00007E00D3C04EB8404D6F82CC000F04AF836
:10380000F56207271668946805680A2E08D30A3EF1
:1038100006EB4606D5F80CC000F036F8EC6006E082
:1038200006EB4606D5F810C000F02EF82C6114689F
:10383000102C18BF112C23D100681C4CA0421AD1A7
:103840001B48046825021BD4056845F40005056083
:103850001068102814D1144C16482568B5FBF0F0F8
:103860000A2250430090009800281EBF009A521E62
:103870000092F8D104E00121586840F0200058601F
:10388000002018700846F2BDB7402CEA0707B44084
:103890003C437047A7402CEA0707A5403D437047CB
:1038A000FDF7E1FFFE0E1FFF3C0000200024014059
:1038B0000824014040420F0038B504462068816862
:1038C000CA0719D58168490849008160FEF714FECE
:1038D000054620688168C8070ED5FEF70DFE401B1F
:1038E0000328F6D3A06A40F01000A062E06A40F01E
:1038F0000100E062012032BD002032BD38B5040075
:103900001ED094F8200010B92046FFF7EFF9206888
:10391000016821F002010160FEF7EEFD0546206816
:1039200041688A0762D5FEF7E7FD401B0B28F6D3F6
:1039300004E0FEF7E1FD401B0B285AD300F0F2F83B
:10394000012032BD016821F080010160617E2068A4
:10395000012904D1026842F04002026003E00168DC
:1039600021F040010160A17E2068012904D1026894
:1039700042F02002026003E0016821F020010160B2
:10398000E17E2068012904D1026822F01002026061
:1039900003E0016841F010010160217F20680129E6
:1039A00004D1026842F00802026003E0016821F0DD
:1039B00008010160617F2068012904D1026842F09A
:1039C0000402026003E0016821F004010160A268C2
:1039D000E06821680243206902436069024360682D
:1039E000401E0243CA6100206062A3E000F0A7F815
:1039F000054620684168CA079BD5217E0129A1D1CF
:103A0000026842F080020260A0E7F8B5066890F80C
:103A10002020012A18BF022A54D106F50072012481
:103A2000106840F00100106006F511750B7DD0693B
:103A300003F01F0304FA03F3DC432040D06106F5D2
:103A40001076C86970B9D7682740D7604F68C868D2
:103A500000F03BF808688F6880B240EA07404F6981
:103A600045F83700C86901280ED1D7681F43D760D1
:103A70004F68086800F029F8C8688E6880B240EA8C
:103A800006404E6945F83600886918B955682540E2
:103A9000556002E0506818435060086918B95569CC
:103AA0002C40546102E0506918435061086A0128B3
:103AB00002D1D1690B43D361106840084000106007
:103AC0000020F2BD00F0A5F89AE0BFB247EA004737
:103AD000486946F83070704738B5044694F82000BD
:103AE000012816D1022184F82010206801684908B5
:103AF00049000160FEF700FD054620684168C807DF
:103B00000DD5FEF7F9FC401B0B28F6D300F00AF8A0
:103B100003E0606A40F400206062012032BD0020B2
:103B2000606232BD606A40F400306062052184F852
:103B300020107047012084F82000002032BD016869
:103B400041F001010160FEF7D7BCF8B590F82040C4
:103B50000568AD68012C18BF022C4FD115F0E05F4D
:103B600048D0C5F30164032C03D3416A41F400013A
:103B700046E00125A5401D6024010368CE6803F5D9
:103B8000C0758B681BB90B6846EA435603E04F6863
:103B900043EAC7031E432E5105680B6905F5C2763B
:103BA0003351097D012906D1036803F5C2710D590E
:103BB00045F480750D519379D17955791B0443EA09
:103BC0000163117900F01FF8C1F88C319378D17836
:103BD00055781B0443EA0163117800F014F8C1F82A
:103BE0008831006800F5C070015941F001010151B0
:103BF0000020F2BD416A41F4001101E000F009F833
:103C000041620120F2BD43EA05230B4301682144D0
:103C10007047416A41F480217047416A41F4802134
:103C200041620120704778B590F82040012C18BF00
:103C3000022C68D10029046801D1E56800E02569FB
:103C400015F0030F03D1416A41F400115DE00D014D
:103C500004F5D876745914F004049460066806F5E7
:103C6000D87603D17459640D146002E07659F608D1
:103C70005660046804F5D8767659C6F34004D460DB
:103C800000F04BF804F00F04146100F046F8C4F3A0
:103C90000724946100F041F8240C546102682A441E
:103CA000D2F8B8211A7002682A44D2F8B821120A50
:103CB0005A7004686219D2F8B821120C9A7004681C
:103CC0006219D2F8B821120EDA7000F021F81A71D8
:103CD00002682A44D2F8BC21120A5A7100F018F87E
:103CE000120C9A7100F014F8120EDA71006821B902
:103CF000C16841F02001C16003E0016941F0200189
:103D00000161002072BDFFF784FF4162012072BD96
:103D100004686219D2F8BC21704704682C44D4F8B6
:103D2000B441704790F82020012A18BF022A03D11D
:103D300000684269114300E06FE74161002070476D
:103D40002DE9F84F05464FF0000828684669D0F87D
:103D500004B08468D0F80C90D0F810A08769F107FF
:103D600045D5E10713D501218160A00703D5284679
:103D700000F0A9FF0BE0600748BF4FF4006806D4CD
:103D800020074EBF4FF48058284600F09DFFE00505
:103D900015D529684FF480708860A00503D52846A2
:103DA00000F093FF0BE0600548BF48F4005806D4CC
:103DB00020054EBF48F48048284600F087FFE00306
:103DC00015D529684FF480308860A00303D52846B4
:103DD00000F07DFF0BE0600348BF48F4004806D4C4
:103DE00020034EBF48F48038284600F071FF3007AA
:103DF00048BF5FEAC96004D52968102048F40078FC
:103E0000C860700748BF5FEA097005D529680820B7
:103E1000C860284600F05DFFB00707D52868C16874
:103E200011F0030F1CBF2846FEF7FCFF700648BFC9
:103E30005FEACA6004D52968102048F480680861E8
:103E4000B00648BF5FEA0A7005D5296808200861F6
:103E5000284600F03FFFF00607D52868016911F0F9
:103E6000030F1CBF284600F036FFB00348BF5FEACF
:103E7000CB6005D5296810204860284600F02CFF4B
:103E8000F00348BF5FEA0B7005D529680820486039
:103E9000284600F022FF300440D55FEA4B703AD547
:103EA000F00503D5F80748BF48F00108B00503D571
:103EB000B80748BF48F00208700503D5780748BF27
:103EC00048F00408300526D517F0700F23D007F00E
:103ED0007007102F0CD0202F0DD0302F0ED0402F78
:103EE0000FD0502F10D0602F08BF48F480780DE01D
:103EF00048F008080AE048F0100807E048F02008F9
:103F000004E048F0400801E048F080082868816932
:103F100021F070018161042029684860B8F1000F28
:103F200008D0686A48EA000068622846BDE8F24F97
:103F300000F0D4BEBDE8F18F10B5040001D101201E
:103F400010BD0020A06294F8510010B92046FEF781
:103F5000C0FF022184F851102068016821F040015F
:103F600001606268A068A1690243E06802432069B9
:103F700002436069024301F40071E0690A430243AD
:103F8000206A0243A06A024320680260A169606A55
:103F9000090C01F004010143206841602068E16AD6
:103FA00001612068C16921F40061C1610020606580
:103FB000012084F85100002010BD0000022068702C
:103FC000211D206800F0B4F901206870002032BD86
:103FD000F8B500F0D1F82BD000F0CAF806D119B925
:103FE000180001D00120F2BD00F0BEF800F075F815
:103FF00006D0042D09D0082D0CD00C2D0FD013E0C5
:1040000000F0A3F800F07EF80DE000F094F800F066
:1040100074F808E000F085F800F06AF803E000F0BA
:1040200076F800F060F8C16000F099F800F0ABF8A5
:10403000F2BD10B5044608000BD004290CD00829A5
:104040000DD00C2901BF2068C36823F48053C360DE
:1040500008E000F0B4F804E000F0ACF801E000F093
:10406000A4F8C26000F0B0F800F025F802BFDFF855
:10407000742113680B4204BF1368034200F024F854
:1040800004BF116A01420CE038B5040001D10120DF
:1040900032BD00F0A1F818B900F09AF8FEF7B5FFAC
:1040A0008CE703D11068400840001060012184F8BB
:1040B0003D10002010BD2268DFF82C3141F21111B3
:1040C0009A4240F24440704703D1536A23F40043BC
:1040D00053622268136A0B4270472E00DFF800011A
:1040E000DFF8F42170472068C16841F480517047BF
:1040F0002068C16841F4006170472068C16841F4DC
:10410000806170472068C16841F400717047266B78
:10411000B262226B1063206800F14002206B00F055
:1041200039BAE66AB262E26A1063206800F13C02C2
:10413000E06A00F02FBAA66AB262A26A1063206831
:1041400000F13802A06A00F025BA666AB262676AB6
:104150003863206800F13402606A00F01BBA2068FE
:104160000122294600F0B2B9022084F83D007047D0
:1041700094F83D000128704704460D4694F83D0030
:104180000228114670472068DFF85C10884205D18C
:10419000DFF85800016841F40041016020680268BE
:1041A00042F001020260002070472068C26822F4D9
:1041B000006270472068C26822F4806270472068FD
:1041C000C26822F4007270472068002200F07EB9B5
:1041D000002129702046704704F13C05687870473B
:1041E000DD420008202C0140002C0140442C0140FD
:1041F00070B500F065F801D1022070BD00F067F8DD
:1042000032B1042A17D0082A28D00C2A39D04AE023
:104210003068294600F0BBF83068816941F0080138
:1042200000F04AF821F00401816131688A69286947
:1042300002438A6137E03068294600F0CAF83068E6
:10424000816941F4006100F037F821F4806100F0E9
:1042500033F82A6941EA0221816124E03068294665
:1042600000F0E0F83068C16941F0080100F020F882
:1042700021F00401C1613168CA6928690243CA6139
:1042800011E03068294600F0F8F83068C16941F45F
:10429000006100F00DF821F4806100F009F82A694E
:1042A00041EA0221C161012060700020207070BDD0
:1042B000C1613068C1697047816130688169704748
:1042C000064606F13C040D4620780128704701217E
:1042D0002170022060707047E9420008406A0121A5
:1042E00080F83D1000F0FBBC10B500F01AF808BFD4
:1042F00001200DD0A16A884208BF022008D0E16ADF
:10430000884208BF042003D0216B884201D10820D5
:1043100020772046FFF71BF900E0000000202077FF
:1043200010BD446A012184F83D10616A88427047DB
:1043300070B5624E0368624C624DB04218BFB0F176
:10434000804F03D0A84218BFA04209D14A6823F089
:1043500070031343B0421CBFB0F1804FA84201D09C
:10436000A04203D1CA6823F4407313434A6923F07F
:10437000800313430360B0428A68C2620A688262A3
:1043800002D10969504A11600122426170BD30B505
:10439000026A520852000262056A4368846900F0AA
:1043A00066F825F002051543444A90420BD123F4E8
:1043B0004073CA6825F0080515434A6913438A69A2
:1043C00025F0040513434360846149684163056235
:1043D00030BD70B5026A394E22F010020262B0425E
:1043E000056A436884690A6824F4E64444EA0224BE
:1043F0008A6825F0200545EA02150DD1CA684E6984
:1044000025F0800545EA02158A6923F440631643C6
:1044100025F0400543EA860343608461496881636F
:10442000056270BD70B5026A244E22F48072026289
:10443000056A4368C46900F01AF825F40075B042B3
:1044400045EA02250DD1CA684E6925F4006545EAA2
:1044500002258A6923F44053164325F4806543EA14
:1044600006134360C4614968C163056270BD0A6890
:1044700024F0730414438A68704770B5026A0F4EC3
:1044800022F480520262B042046A4268C3690D6835
:1044900023F4E64343EA05238D6824F4005444EAF8
:1044A000053404D14D6922F4804242EA851242600B
:1044B000C36149680164046270BD0000002C0140C2
:1044C0000008004000040040302C014010B5036A91
:1044D00001248C40A343036202FA01F1036A1943E9
:1044E000016210BD30B500F13C031A78012A01D1F8
:1044F000022030BD01241C7002225A7002685468E8
:1045000024F070045460046865680A6815436560A7
:104510000268946824F08004946002689468486893
:1045200004439460012058700020187030BD0000D2
:1045300010B508B9012010BD0368DFF8A812C9182A
:10454000142400F13802B1FBF4F4DFF89C1251603E
:10455000A4009460022180F821101C6841686FF368
:104560000D140C4381680C43C1680C4301690C4372
:1045700041690C4381690C43C1690C431C600021F3
:104580001160012180F821100021FFE780F8201040
:10459000002010BDF8B50446002594F8200001283D
:1045A00001D10220F2BD94F821000126012884F8EF
:1045B000206024D1022684F8216004F12C06F560E5
:1045C000206807687F087F000760204600F01CF91C
:1045D0002168306820B10A6842F00E020A6008E0E3
:1045E000086820F0040008602068016841F00A01B2
:1045F00001602068026842F00102026002E084F873
:10460000205002252846F2BD38B590F8212000241C
:10461000022A00F1340103D00420486001243EE066
:104620000268136823F00E0313600268DFF8BC31E0
:1046300015686D086D00156002689A4208BF012276
:1046400022D0DFF8AC319A4208BF10221CD0DFF82C
:10465000A4319A4208BF4FF4807215D0DFF8983128
:104660009A4208BF4FF480520ED0DFF890319A4240
:1046700008BF4FF4803207D0DFF884319A420CBF74
:104680004FF480124FF08072DFF878311A60012207
:1046900080F8212080F82040096801B18847204631
:1046A00032BD2DE9F84F00F1280204275169544B1F
:1046B000D1F800E00468534925689669DFF83C8129
:1046C000DFF83491DFF82CA1DFF824B1DFF81CC14A
:1046D000B7401EEA070F2DD06F072BD52568AD0612
:1046E00003D4256825F0040525600468644508BFE7
:1046F000042318D05C4508BF402314D0544508BF9C
:104700004FF480630FD04C4508BF4FF480430AD06C
:10471000444508BF4FF4802305D09C420CBF4FF4A2
:1047200080034FF080630B605168002957D0BDE8CB
:10473000F44F08470227B7401EEA070F32D0AF07F1
:1047400030D52568AD0606D4256825F00A05256014
:10475000012480F821400468644508BF022318D072
:104760005C4508BF202314D0544508BF4FF40073A4
:104770000FD04C4508BF4FF400530AD0444508BF42
:104780004FF4003305D09C420CBF4FF400134FF0A0
:1047900000730B60002180F820101168F9B1BDE8AA
:1047A000F44F0847082101FA06F61EEA060F16D054
:1047B000290714D5216821F00E0121600123916998
:1047C0008B4051694B6001230021136180F8201058
:1047D00080F82130916811B1BDE8F44F0847BDE879
:1047E000F18F0000F8FFFDBF00000240080002400A
:1047F0001C000240300002404400024058000240C9
:104800006C0002400400024038B5046C0125A5404C
:10481000C46B6560046863604068102802D1A260C0
:10482000E16031BDA160E26031BD000038B5040037
:1048300001D1012032BD00F022F808B900F023F8C0
:1048400000F013F800F024F8FFE7416100F001F8F0
:1048500032BD2068C16841F40051C1600020686029
:1048600020206870A870002070472420687020689D
:10487000C16821F40051C160204600F0ACB904F1D8
:10488000380568787047002129702046FEF733BC50
:104890002068016921F4904101612068416921F09B
:1048A0002A0170472DE9F843054605F138070C4603
:1048B00078782028164698463CD1002C14BF002E4C
:1048C000012038D03878012834D0012139702120D6
:1048D000002179607870FDF70FFEAE848146EE848A
:1048E00003E0296814F8010B4860E88C28B3E98CD0
:1048F000481EE8844B46A868CDF80080B0F5805F7C
:104900000DD100F024F870B920882968C0F30800A0
:1049100048602869002814BF641CA41CE5E700F067
:1049200016F80028DDD0032005E020207870002054
:10493000387000E00220BDE8F283CDF800804B46DD
:104940000022402100F005F80028EED0EBE700221D
:1049500080212846AEE0416921F040014161606B51
:10496000704738B5044625682968EA686B6911F014
:104970000F0007D188065DD590065BD52046BDE8BF
:104980003240DDE0D80702D412F4907F52D0C8073D
:1049900005D5D00503D5E06B40F00100E063480782
:1049A00005D5D80703D5E06B40F00200E063880727
:1049B00005D5D80703D5E06B40F00400E063080795
:1049C00005D5D80703D5E06B40F00800E063E06B45
:1049D00000286ED0890604D5900644BF204600F01A
:1049E000AFF820684069E16B0A0701D440061BD587
:1049F000204600F091F8206841694A060FD5FFF77C
:104A0000AAFF60B10FF22D114163606BFFF7FCFD4F
:104A100000284ED0606B416BBDE83440084720460B
:104A2000BDE8324000F05CB9204600F059F90020A2
:104A3000E06331BD08062CD510062AD594F839005C
:104A4000212836D1A168206AB1F5805F0DD1018897
:104A5000C1F308016960206918B9216A881C2062C5
:104A600007E0206A411C216203E0411C21620078BA
:104A70006860E08C401EE08480B2D0B92068C168D4
:104A800021F08001C1602068C16841F04001C1602F
:104A900031BD48060DD550060BD5E86820F0400022
:104AA000E860202184F839102046BDE8324000F04B
:104AB00018B931BD2DE9F041069C05460E469046D9
:104AC0001F46286801683140B1420CBF0120002018
:104AD000404517D114F1010FF3D024B1FDF70CFDBF
:104AE000C01B8442EDD22868C16821F4D07100F067
:104AF0000CF805F13800202141708170002101700F
:104B0000032000E00020BDE8F081C1602868416911
:104B100049084900416170470168CA6822F49072EF
:104B2000CA6001684A69520852004A61202180F82F
:104B30003A107047406A0021C185C18400F0D0B8A6
:104B400080B590F83A10222943D18268B2F5805F8F
:104B500014D1826A016941B903685968C1F3080137
:104B60001180826A911C816218E001684B6803F031
:104B7000FF031380816A4A1C82620FE001690029E9
:104B8000816A04D14A1C82620268536805E04A1CAB
:104B900082620268536803F07F030B70C18D491E67
:104BA000C18589B299B90168CA6822F02002CA6039
:104BB0000168CA6822F48072CA6001684A695208B2
:104BC00052004A61202180F83A1000F08BF8002052
:104BD00002BD022002BD2DE9F0470446642521688C
:104BE0000A69E06822F4405202430A611926CA6841
:104BF00031480240A06802432069024360690243D1
:104C0000CA604A69A06922F4407202432B484A6193
:104C100081420ED1FDF746FC0746FDF743FC804676
:104C2000FDF740FC8146FDF73DFC8246FDF73AFC6E
:104C30000DE0FDF72FFC0746FDF72CFC8046FDF745
:104C400029FC8146FDF726FC8246FDF723FC06FB86
:104C500009F9616889007743B7FBF1F206FB08F7B1
:104C6000B7FBF1F3B9FBF1F7B7FBF5F705FB17332A
:104C70001B013233B3FBF5F3B2FBF5F203F0F003A3
:104C800003EB021306FB0AF74643B7FBF1F2B6FB50
:104C9000F1F06421B0FBF1F005FB10252D01323558
:104CA0006420B5FBF0F0216800F00F00C3188B60A2
:104CB000BDE8F08700000000F3E9FFFF0038014085
:104CC000002200F011B87047704770477047704776
:104CD000704770477047704770477047704770471C
:104CE0007047704770470000401810F0030308D069
:104CF000C91A1FD3DB0748BF00F8012D28BF20F8D1
:104D0000022D130030B414461546103928BF20E98F
:104D10003C00FAD8490728BF20E90C0048BF40F8FA
:104D2000042D890028BF20F8022D48BF00F8012D6E
:104D300030BC7047C91818BF00F8012DCB0728BF39
:104D400000F8012D704700000E49086840F001008E
:104D500008604A680C4802404A600B680B480340F0
:104D60000B60086820F4802008604FF41F004A6838
:104D700022F4FE024A6088604FF000600449086037
:104D800070470000001002400000FFF8FFFFF6FE31
:104D900008ED00E000000000000000000102030434
:104DA0000607080919E050F8042BD30744BFA9F1FE
:104DB00001039A18091F0023042942F8043BF9D281
:104DC0005FEA817C134604D54FF0000CA2F800C0C6
:104DD0009B1CC90744BF0021197050F8041B00290F
:104DE000E1D170477047FEE7FEE7FEE7FEE7704758
:104DF0007047704700F012B80548FFF752BC00E05A
:104E000000BF0448FEF79CBFFBE70348FFF7A9BDBE
:104E100074030020580400205800002002494A680A
:104E2000087882184A6070473000002030B5016869
:104E300084684218416802EB5103C9070BD54C4402
:104E400009E012F9011B12F8015B002904F8015B6B
:104E500005D5491CF9D19A42F3D10C3030BD491E19
:104E6000F1D5F8E710B5074979441831064C7C4470
:104E7000163404E00A68081D114488470146A1421F
:104E8000F8D110BD080000002400000019FFFFFF4A
:104E900080040000980000200000000091FFFFFF48
:104EA000FC000000360000000000002000F00DF8BB
:104EB000002801D0FFF7D6FFAFF300800020AFF34A
:104EC0000080FDF71FFB00F002F80120704700F0A2
:104ED00001B8000007463846FCF78CFBFBE70000F2
:104EE0000148804701480047494D0008F14E00083D
:104EF000AFF30080AFF30080FFF7D8FF00000000A1
:104F000001020304FFF7FEBFFFF7FEBFFFF7FEBF7E
:104F1000FFF7FEBFFFF7FEBFFFF7FEBFFFF7FEBFC5
:104F2000FFF7FEBFFFF7FEBFFFF7FEBFFFF7FEBFB5
:104F3000FFF7FEBFFFF7FEBFFFF7FEBFFFF7FEBFA5
:104F4000FFF7FEBFFFF7FEBFFFF7FEBFFFF7FEBF95
:104F5000FFF7FEBFFFF7FEBFFFF7FEBFFFF7FEBF85
:104F6000FFF7FEBFFFF7FEBFFFF7FEBFFFF7FEBF75
:104F7000FFF7FEBFFFF7FEBFFFF7FEBFFFF7FEBF65
:104F8000FFF7FEBFFFF7FEBFFFF7FEBFFFF7FEBF55
:104F9000FFF7FEBFFFF7FEBFFFF7FEBF010004F5FE
:104FA000000020DE000001F9000010FC0006A24A0B
:074FB0000462791006AC0059
:0400000508004EF1B0
:00000001FF
